S0180000646D5F6C6974655F6D6732315F763636302E733337F7
S31500004000A8B500204F7B0500312A02002D67050068
S31500004010A70A0A010041000004180FAC20667E00C2
S31500004020000000000000000000000000000000008A
S3150000403000000000C0BD05000000000000000000F8
S315000040400000000000000000FFFFFFFFFFFFFFFF72
S31500004050FFFFFFFF00600F000000000000000000EF
S31500004060FFFFFFFFFFFFFFFF8000000000000000D2
S31500004070000000000000000000000000000000003A
S3150000408000000000000000002C5E01202C5E0120D4
S31500004090A8B50020C8A10600687B0500A8B30020CB
S311000040A04012002000E00F0000000000AD
S31500004100A8B500204F7B0500312A02002D67050067
S3150000411035670500316705003967050000000000B6
S31500004120000000000000000000000000B769000069
S315000041303D670500FF6700002B7C05009D280300F6
S3150000414045670500456705004567050045670500A5
S31500004150456705002D0B0300819A0200456705009F
S315000041604567050045670500279702004567050076
S315000041704567050045670500456705004567050075
S31500004180456705004567050045670500EF8800009F
S315000041904567050073070400456705004567050088
S315000041A045670500ED090400DD09040045670500C3
S315000041B04567050045670500456705008FD803007C
S315000041C043D8030041D80300A5D303008DD80300CC
S315000041D045D8030049D8030047D80300E974050011
S315000041E0C5D803004567050045670500D1CF000027
S315000041F04567050045670500456705009FD0000037
S3150000420045670500456705004567050045670500E4
S3150000421045670500456705004567050045670500D4
S3150000422045670500456705004567050045670500C4
S3150000423045670500102510B5494A494C4A4B1B688D
S31500004240234207D103408B420DD0521EF6D16FF0A8
S31500004250020010BD4548034202D06FF0010C201643
S315000042604FF0FF3010BD002010BD70B5404D6860A6
S31500004270E8680E46410702D518200870BD56F804B6
S315000042800B141F02E008101D241FA86044B108216A
S315000042900820FFF7CFFF0100F4D00421296070BD8C
S315000042A0042028600021211612C4162304D10C1004
S315000042B005BDE87040BCE77054301341F671312AF1
S315000042C04C01222A4BE568E1621A606060022626EC
S315000042D030300B2D0CFFF7ABFF05F0010501000395
S315000042E036201CFFF7A3FF0121204A11600DB10003
S315000042F021E16270BD2DE9F843184F3D68894614E7
S31500004300464A200A80462D0C39620122164B0020AF
S315000043103A100B1A6009E0324649464046FFF79FBD
S315000043207E501F0DD1B044B144A41B4CB108F5001A
S3150000433056760B7603A6EB0806B442ECD22646EA7E
S31500004340E70121095C10133962BDE8F283000080A1
S31500004350969800060001001C00034002081210088F
S31500004360130C100400012003400000006444000008
S315000043702900000011000000A04300000400000016
S31500004380C44300000C0000005046000046470000F1
S31500004390000000004747000000000000FFFFFFFF8D
S315000043A00028012803280A18292A0129242A252A4F
S315000043B0262A0018002A012A0118052A2A2B292B49
S315000043C002290000C91B803D61500C978D45197D5F
S315000043D0965BE5BAD92A49E678E24C9CD7495FB1A3
S315000043E0AC37E17615AEDB1F14A5D4859745FD0BDA
S315000043F052EE162F1B9AAB8BF73434BA9C4C2139EC
S3150000440054CBA182220B0000000000002A0A000003
S31500004410000000002A090000000000000208020057
S31500004420E85C01200207080052C3002002060500CE
S31500004430D0BF002002050300D8BF002002040800F8
S31500004440DCBF002002030C005CC300200A0201004E
S31500004450FF5D0120020110004447012020000400F6
S315000044605447012000000108FFFF000042470000FA
S3150000447002000108FFFF00003A4700000D00000897
S31500004480FFFF00015C44000010000708FFFF000367
S315000044900200000002000108FFFF00003247000092
S315000044A00E000108FFFF000154440000020001084D
S315000044B0FFFF00002A4700000F000308FFFF00016E
S315000044C04C44000000000108FFFF000026470000E2
S315000044D002000108FFFF00001E470000040001085B
S315000044E0FFFF00024444000005000108FFFF000032
S315000044F01847000002000108FFFF000010470000F7
S3150000450006000108FFFF00013C4400000500010809
S31500004510FFFF00000A47000002000108FFFF00003D
S315000045200247000007000108FFFF000134440000B5
S3150000453005000108FFFF0000FC460000020001081C
S31500004540FFFF0000F446000008000108FFFF00011D
S315000045502C44000005000108FFFF0000EE460000A5
S3150000456000000108FFFF0000EA4600000200010803
S31500004570FFFF0000E24600000A000108FFFF0002FC
S315000045802444000005000108FFFF0000DC4600008F
S3150000459002000108FFFF0000D44600000B000108DE
S315000045A0FFFF00011C44000005000108FFFF00009A
S315000045B0CE46000000000108FFFF0000BC460000D8
S315000045C002000108FFFF0000A64600000180030864
S315000045D0FFFF00071444000010000708FFFF000358
S315000045E00209010005000108FFFF0000A0460000C7
S315000045F002000108FFFF00008A460000028003084F
S31500004600FFFF00070C44000010000708FFFF00032F
S31500004610020A020005000108FFFF000084460000B0
S3150000462002000108FFFF00006E460000038001083B
S31500004630FFFF00070444000010000708FFFF000307
S31500004640020B030005000108FFFF0000684600009A
S315000046500300060008000B000E00110014001800ED
S315000046601B001F002300270004006E756C6C1300EE
S315000046702227001B9AAB8BF73434BA9C4C21395451
S31500004680CBA1820004006E756C6C13002A23001502
S31500004690AEDB1F14A5D4859745FD0B52EE162F00F1
S315000046A004006E756C6C13002A1F00D92A49E6783F
S315000046B0E24C9CD7495FB1AC37E176001000C91BCC
S315000046C0803D61500C978D45197D965BE5BA0400D7
S315000046D06E756C6C0500021B00012A0004006E75E5
S315000046E06C6C0500021800002A0002000018040085
S315000046F06E756C6C0500021400262A0004006E75A7
S315000047006C6C0500021100252A0004006E756C6CA5
S315000047100500020E00242A0004006E756C6C05006C
S31500004720020B00292A0002000A1805000A080029BF
S315000047302B0005000206002A2B00050020030005B9
S315000047402A0002000118000080B544490988444A3D
S31500004750002000F0B9FB5328A8BF522002BD2DE966
S31500004760FE4300F072F800F099FD00F05EF8412279
S3150000477000F060F800F063F8FFF7E6FF8146E0B26C
S31500004780B04216DA3888C01C814512DB6A46E1B2AF
S31500004790404600F081FD50B1BDF8000000F0CEFDAE
S315000047A09DF8020000F0BBFD2878401C2870641CB0
S315000047B0E5E735E02DE9FE4300F047F800F06AFD35
S315000047C000F033F8422200F035F800F038F8FFF731
S315000047D0BBFF8146E0B2B04222DA38880830814514
S315000047E01EDB6A46E1B2404600F052FDB0B1BDF8AC
S315000047F0000000F0A3FD9DF8020000F090FDBDF85A
S31500004800040000F09BFDBDF8060000F097FD9DF842
S31500004810080000F084FD2878401C2870641CD9E745
S3150000482000F0EAFA0120BDE8FE83064601940096F0
S315000048300C4B70474FF48051092000F0C3BE3988F5
S3150000484009484518002000F06ABD0446074801687B
S31500004850074F0A6892F8058040467047385C012089
S3150000486034CB0020947C050040CB002018CC0020DF
S315000048703A5C012080B501F098FAFF2805D002289D
S3150000488003D2DFF8E417085C02BD002002BDE0B5E4
S315000048900221009101AB0022032101F06FFC20B937
S315000048A0BDF8040010B1012000E00020C0B20EBD2A
S315000048B0F8B5069F002400250646092F02D30020DE
S315000048C00021F4BDA4460DE0A7EB000EB6441EF889
S315000048D0010C2D0245EA1465002110EB04240CF1AD
S315000048E0010C4D415FFA8CF0B842EDD39D4206D8DB
S315000048F028BF944203D2101B63EB0501F4BDA01A36
S3150000490065EB0301F4BD10B50268DFF86017138884
S315000049100B8054884C8052790A7103681A794FF4D7
S315000049208253CB804A71026893799A06DFF8402752
S3150000493044BF4FF48353CB808169137839B9C0885B
S31500004940DFF8301703F0FD030880137010BD43F045
S3150000495002031370DFF8204781691622204601F012
S31500004960EFFE0022227010BD80B5002001F04DFF41
S31500004970FF2001F073FA01F056FF00F0F2FE024646
S315000049800121DFF8E40601F022FFDFF8E036DFF868
S31500004990EC265221DFF8E80600F0FFFD01F07BFF70
S315000049A002F00AF802F0F2F802F0B8F903F074F92E
S315000049B003F063FE03F014FF03F057FF03F096FFC6
S315000049C003F096FFBDE8014000F0A2BF03F009BF67
S315000049D080B504F071F820B905F0FAFA08B903F0C9
S315000049E0D7FB00F06FFCBDE8014000F07BBC70B562
S315000049F0034600204FF6FF72DFF8884634F8305041
S31500004A0095420ED09D4209D1B3F57C4F0ADB04EBEB
S31500004A10C0056E888E4205D00D0003D0401C80B2C2
S31500004A20ECE7104670BD10B50446FFF7E0FFDFF86F
S31500004A3058164FF6FF720B88904203D12246DFF8D4
S31500004A404C1606E0DFF83C1601EBC0004268DFF8C2
S31500004A5040161846BDE8104005F099BBDFF834064D
S31500004A60006800B1008A70471CB50446DFF82816B6
S31500004A70087800283DD005F061FC0246DFF81C16D8
S31500004A80022005F084FB206841880091A2894379C1
S31500004A90DFF80C16022005F07AFB022005F032FB47
S31500004AA020B12068218A4088FFF7BDFFE07B28B14E
S31500004AB0228ADFF8F015022005F069FBE07CDFF8BA
S31500004AC0E8150090A068A37C0278022005F05FFB41
S31500004AD0217DA289A4680123521A92B221440220A0
S31500004AE005F044FCDFF8C4150220BDE81C4005F0C3
S31500004AF048BB13BD10B504462168487901F055F945
S31500004B00FF281DD0DFF8A81501EB0010217F027BDE
S31500004B108A4215D1226840881188884206D04FF60D
S31500004B20FF7399420CD1B0F5004F09DA20790228BB
S31500004B3018BF032806D11189507905F06FFE08B910
S31500004B40002010BDA07B0028204602D005F0B4FE50
S31500004B5001E005F0E1FE00B1012010BD3EB51446AE
S31500004B60227855074CBF05220322934209D20092B0
S31500004B70DFF84025DFF84015022005F002FB002093
S31500004B803EBD089D069A28602971EA80AC60AB811B
S31500004B90207800F00100A8732178890801F001014E
S31500004BA0E973207801212975C00800F001006875B5
S31500004BB0E87B30B11A46204600F01EFC297D891C90
S31500004BC0297507992882287D421C2A75205C531C6A
S31500004BD02B75A874D2B2A05CA961E87406F0EBF953
S31500004BE0287701203EBD2DE9F14F84B00F4692464D
S31500004BF0DFF8C8549B460E9EDDF83C802846DFF859
S31500004C00C014202206F09EFA02950498CDF804807E
S31500004C1000965B46524639460024FFF79FFFDFF8B1
S31500004C207494002869D0C9F80050A87CDFF8941461
S31500004C3008702846FFF718FF2846FFF764FE284647
S31500004C4006F09FFA30BBB8F1000F25D1042F18BF2C
S31500004C50052F03D0022F18BF032F01D1012200E038
S31500004C600022E9882868019101214388009303887E
S31500004C70E87C00F007F998B12868817988060FD496
S31500004C80DFF84444012121700022284600F0BAF8DA
S31500004C9000202070012430E098F8140081072CD5FC
S31500004CA028684179FF2924D10026DFF8C08300F067
S31500004CB058FDF1B2814220D2F0B201F078F80746F1
S31500004CC0F0B200F052FD90B128682A8A4188384631
S31500004CD000F0B7FF58B12846FFF715FE2868477160
S31500004CE088F804702846FFF705FF00B10124761CFA
S31500004CF0DDE72846FFF7FEFE044600F0F9FA162225
S31500004D000021DFF8740301F062FD0020C9F80000FD
S31500004D10204605B0BDE8F08FDFF8B0130878401CD8
S31500004D200870FFE700F07F007047DFF844130A7849
S31500004D30002814BF42F0010202F0FE020A7070471A
S31500004D40DFF88C130870704780B1DFF88413097898
S31500004D50012904D1018841F04001018070470229F0
S31500004D6004D102884FF6BF710A400280704778B1BD
S31500004D70DFF860130A78012A04D1DFF85C23137880
S31500004D800B7001E0022A03D1017841F01001017095
S31500004D907047FEB5B64C2178CA0701D50020FEBD86
S31500004DA0C84A1378B64A15786E074CBFD37053704D
S31500004DB0B24B1D88890708D52946AF4806F034FC52
S31500004DC0217801F0FD012170FEBDAA4B1C884FF62B
S31500004DD0FC77A649BC4208DA009201900A462B46A7
S31500004DE02146002006F006FEFEBD009013462A4628
S31500004DF0204606F0CEFDFEBD0020CAE70146A548C6
S31500004E000068002270B5044620790E461546002833
S31500004E1018BF01280BD1A0680178CA0601D5300059
S31500004E2005D0A07B002804BFE07C0B2801D1002020
S31500004E3070BD0021914A1180607DE17B00280CBF86
S31500004E400820002011B900F06AFA06E040F00400DC
S31500004E5000F065FA208A00F071FAA07C00F05FFA93
S31500004E600B2000F05CFAE07C00F059FA304600F0C6
S31500004E7056FA2046FFF747FD2846BDE8704088E70A
S31500004E800022BFE770B51D46944B1C788E4E012C50
S31500004E9001D0337813B10020307070BD0B0002D101
S31500004EA00AB1002070BD002C1EBF049C4FF657436C
S31500004EB09C4206D003460A462146284600F072F96F
S31500004EC000B1012070BD000038B5D28852240346D7
S31500004ED0950608464FF6FD7148BF4924550548BF5B
S31500004EE0083C150548BF083C120448BFA41E032B06
S31500004EF00ED8DFE803F00902060BC0B207F06FF91F
S31500004F0002E0C0B207F0AEFB014601E0641EE4B267
S31500004F10084603F0CDFB241AE0B232BD4254120A11
S31500004F2008444270704708440270110A130C120EAE
S31500004F3041708370C270704770B50C000546164606
S31500004F4008BF002003D02178FF2902D1FF20287056
S31500004F5070BD204600F072FA864288BF0646324689
S31500004F60611C681C01F0ECFB2E7070BD70B5054627
S31500004F700C00164603D100206870297070BD207899
S31500004F80FF2804BF6078FF2802D12870687070BDC2
S31500004F90204600F058FA864288BF06463246A11CD3
S31500004FA0A81C01F0CDFB2E70360A6E7070BD2DE97F
S31500004FB0F041541E0BB3042A46DC00230026984613
S31500004FC05FFA88F5954225D2651B002814BF10F8B4
S31500004FD005C04FF0000C571E4D5DA7EB0807FF00FC
S31500004FE00CFA07FC05FA07F74CEA03033E4308F1FF
S31500004FF00108E5E7AE4224DB5B1CDDB2954223D215
S31500005000651B00280CBF0026465D4D5DB542F1DAF2
S3150000501001201AE0042A10DAD5000120D2006D1E04
S3150000502000FA02F2524243FA05F1CC0746FA05F0BD
S3150000503048BF1343C00748BF16439E42E8DBB3424E
S3150000504002DA4FF0FF3000E00020BDE8F0810021D9
S31500005050234A01E0891CC9B2535C8342FAD3501833
S315000050604078704700000000405C012034CB0020EF
S315000050709C5D0120385C01201CCC00203A5C01209C
S3150000508040CB00203C9905003E5C0120A498050019
S31500005090BC98050018CC002090C30020C4980500D9
S315000050A0CC980500EC980500F89805005A9B060078
S315000050B0E0CA00203499050018990500F8CB0020B5
S315000050C07C99050095C30020985D012096C30020B9
S315000050D0995D01209A5D01209B5D012094C300200B
S315000050E09C990500283808288041C00F704710B5E4
S315000050F000F009F8FF2801D1A32010BD002104F813
S315000051003010002010BD0446084600F04EBE38B5EB
S3150000511000F00BF8FF2801D1A32032BD294604EB8D
S31500005120C000BDE8344001F0E6BB0446084615461B
S3150000513000F03BBE40B11C280BD01D280CD01E2809
S3150000514018BF1F2805D009E00B39102906D2002008
S3150000515070471B29FBDB01E00929F8DB8A20704731
S3150000516010F0E00011D0802806D0A02806D0C02874
S3150000517006D0E02806D007E01C2070471D207047A7
S315000051801E2070471F207047FF20704700F01F0049
S315000051907047704770470120704701207047012013
S315000051A07047704700207047002070470020704706
S315000051B0002070470020704700207047012070478C
S315000051C001207047B52070470020704700207047C7
S315000051D000207047002070477047704700207047D6
S315000051E070470020704784207047704770477047AB
S315000051F0704770477047002070477047704701201E
S31500005200704700207047704707F0EABB03207047DD
S3150000521070B50C46010015461E460CBF0E4A0F4AD5
S3150000522003460F49012004F0ACFF32460D49012028
S3150000523004F0A7FF2B4622460B490120BDE870402B
S3150000524004F09FBF002070470848016808780128CD
S3150000525008BF02207047000018DA050028DA0500AA
S31500005260F0D9050030DA050048DA050094CB0020B5
S315000052707047002070474FF6FE720121C28181817E
S315000052800161002202700120704770477047704725
S3150000529000207047002070470020704700207047AC
S315000052A07047002070477047002070470020704705
S315000052B0002070470020704700207047002070478C
S315000052C0002070477047B5207047002070470020C7
S315000052D070477047002070477047704770477047A7
S315000052E0B520704770477047002070477047704779
S315000052F080B500204B49087007F01DFC4A4A108013
S3150000530052220021494801F062FA002048490880EB
S315000053100C2200214748BDE8084001F058BA10B5F4
S3150000532043490A88522A07DA404CA054521C0A8084
S3150000533092B2A018401E10BD002010BD38B505461B
S31500005340C0B2FFF7ECFF0446280AFFF7E8FF002C7F
S3150000535018BF002801D0204632BD002032BDF8B566
S315000053600746C0B2FFF7DBFF06463804000EFFF71C
S31500005370D6FF05463802000EFFF7D1FF0446380E69
S31500005380FFF7CDFF002E18BF002D05D0002C18BF4B
S31500005390002801D03046F2BD0020F2BDF8B5244DFC
S315000053A02B880C462646F718522F0CDA1F4F01465B
S315000053B02246F81801F0C4F92B88E4182C80A4B210
S315000053C0A41B3819F2BD0020F2BD30B504461D46B7
S315000053D000205B189A4207DA30BD5218224412F8B0
S315000053E0013C6D1E03EB0020EAB2002AF5D130BD68
S315000053F00423EAE70323E8E780B50223FFF7E5FF86
S3150000540080B202BD03460C48914200D3704710B5E6
S315000054105C5CFF2C08BF00246418641CA242A8BF71
S31500005420581810BD9C5D0120385C012040CB00203F
S315000054303A5C012034CB00203C5C01200078FF2838
S3150000544008BF0020704780B502220021FFF7D4FF75
S315000054504FF6FF72904208BF002002BD2DE9F24FC1
S31500005460022940F39580190005D0BDF800100529E2
S31500005470F7DB42F00402824601268AF80020180073
S3150000548005D08AF801301B0A8AF8023003260A9CE6
S31500005490FFF742FC0AF80600761CB0B20AF8004094
S315000054A0761C4FF0000BDDF8309007E0BAB24146AB
S315000054B0504401F045F9BE190BF1010B0B985FFA48
S315000054C08BF1405C002865D000250024A046732897
S315000054D034DC4C2859F8048B1CBF5328622811D1A0
S315000054E059F8047B4C2806D1BDB24FF6FF708542B1
S315000054F036D0022434E0532832D1FDB2FF2D2FD00E
S3150000550001242DE06C2804D14046FFF79CFF871C40
S3150000551026E0732804D14046FFF790FF471C1FE0A2
S31500005520A0F130010A2938BFA0F1300718D3A0F145
S31500005530410107292CD2A0F1370711E00027752871
S3150000554008BF01240AD0762808BF022406D078288E
S3150000555008BF032402D077281AD1042459F8045B23
S31500005560BDF80010B2B2B8B28218A218914205DA9C
S315000055700EE00AF80050761C2D0A641EE1B2B0B2A5
S315000055800029F6D1B9B2002996D0B8F1000F8DD115
S31500005590002000E0B0B2BDE8F28F10B54A4C2060A2
S315000055A04A4801804A490A604A4A136010BD7FB5DD
S315000055B00C46089909AD009302951346019100F037
S315000055C017F808E07FB50C4608A90092029100F092
S315000055D00FF801930023FFF741FF3D490A683D4B51
S315000055E0108019684FF482524C80CA8004B070BD96
S315000055F00246364D344E29883068704738B5034622
S31500005600334C31482568026832482988006801B061
S31500005610BDE8304006F01ABA0020EFE77FB500F08B
S3150000562028F806F064F904B070BD0023F6E710B55B
S315000056302548274B02681C68264800682188BDE873
S31500005640104006F06DB97CB501921F4A1468204DD2
S315000056502E6800941F4C3388226806F0CBF976BD7D
S315000056600022F0E77FB500F004F806F0A7F904B0D1
S3150000567070BD174C009125680293134901920B687F
S31500005680144E2A88316870470023EBE7F8B50E4DB3
S315000056902E6884B00A9C03960D4F3E6835880194A7
S315000056A00C4C266802957588009506F003FA05B03D
S315000056B0F0BD084800687047064A136818711068FC
S315000056C0417170470000000028CB0020D64C012015
S315000056D02CCB002030CB00207FB5DFF8882913685B
S315000056E0DFF88409008803A90B60DFF88019ADF89C
S315000056F006000988DFF878090568DFF87809008868
S31500005700ADF804100222ADF80200DFF86C0902AC15
S31500005710002102702560ADF80010DFF8600903AEC5
S31500005720DFF85C290DF1060402EB0112655C02ACA0
S31500005730157036F81130538034F8113001AC93806F
S31500005740655C0DF1020395715C5C00EBC405956028
S315000057501DF801400125491C147355730229DFDB2E
S315000057607FBDDFF8140900787047DFF8141901EBE4
S315000057700010407B00F001007047412818BF422806
S3150000578003D0432818BF442801D1012070470020C8
S315000057907047412818BF422801D1012070470020D8
S315000057A07047432818BF442801D1012070470020C4
S315000057B07047F8B515461E46069A079B044600F044
S315000057C055FA60B1042100F0D7FB070007D0204648
S315000057D001F020F8324629462046B84794E0F1BD4C
S315000057E02DE9FC471400814688461F461CBF0A9DCA
S315000057F0002D1FD0F7B128780C9B0107618820790E
S315000058004CBF4022802200F031FA98B1082100F006
S31500005810B3FB824670B120790B9E00F0FBFF00952A
S3150000582001963B46224641464846D047BDE8F347E7
S3150000583000F0F9BFBDE8F387F8B5069C16461A4690
S315000058400546234600F012FAD0B121000BD1022101
S3150000585000F092FB040013D0284600F0DBFF31462F
S315000058602846A0470BE0102100F086FB070007D072
S31500005870284600F0CFFF224631462846B84743E087
S31500005880F1BD2DE9F843089C90461A460646234684
S3150000589000F0ECF908B9862016E000259CB9202115
S315000058A000F06AFB814670B10B9F0A9C099D304649
S315000058B000F0B0FF009723462A4641463046C847C7
S315000058C0054600F0B0FF2846BDE8F283F8B5044669
S315000058D02078A568002600F09DFF11E0F1B21422A1
S315000058E028685143471839882078FFF75AFC012168
S315000058F0384600F041FB01001CBF20788847761C23
S315000059002979F0B28842E9D3BDE8F14000F08BBFB7
S3150000591038B50024DFF860570AE0DFF8640721068F
S3150000592000EB1150427BD10748BFFFF7CFFF641C45
S315000059302978E0B28842F0D331BD5CB585B00A9CC7
S3150000594000268DF80800ADF80A108DF80C30ADF879
S315000059500E200196ADF8104000960023002201A902
S3150000596002A800F083F8019807B050BD7CB5069DEB
S315000059701C4696782B0008BFD378412E18BF422EBE
S3150000598006D0432E09D19A1E92B2FFF7EFFA16E01F
S315000059905A1ED2B2FFF7D0FA11E0442EF3D034B932
S315000059A02C0004D0D278954201D2892076BD0029F8
S315000059B01A4602D100F00BFF01E000F0C1FE002004
S315000059C076BD10B5002301E0001D5B1C9CB28C4225
S315000059D004D204889442F7D1408810BD002010BD3F
S315000059E0DFF8A016401A0C2290FBF2F20021DFF835
S315000059F0980610E00288B2F57C4FA8BF00F002B806
S31500005A000846EDE7DFF88416401A142290FBF2F2FE
S31500005A100021DFF87C0692B2D3E710B50C46018868
S31500005A20628891420DD1037B2279134209D0B1F5E8
S31500005A307C4F04DBFFF7E6FF2189884201D1012074
S31500005A4010BD002010BD10B514460A88E3889A429E
S31500005A500AD10288B2F57C4F04DAFFF7CBFF218921
S31500005A60884201D1012010BD002010BD2DE9F74F5D
S31500005A7082B004469A460025002703E0C8884519E7
S31500005A807F1CFFB2DFF8F0150A78974280F0A380FA
S31500005A90DFF8EC0500EB07102378027881689A425C
S31500005AA0ECD10091407BC107EAD54FF0000804E035
S31500005AB0B9F80A00451908F1010800995FFA88F05B
S31500005AC00A799042DCD20A685FFA88F114204843CA
S31500005AD0214602EB00094846FFF79FFF0028E7D062
S31500005AE04FF0000B07E030790BF1010B10F0300F8F
S31500005AF004BFF0784519B9F808101FFA8BF08842F0
S31500005B00D9D21FFA8BF20C21D9F804004A43861821
S31500005B10224631464846FFF796FF0028E3D0039811
S31500005B202746344600B104602079810610D5DFF897
S31500005B305405002105E00279930644BFC278511846
S31500005B400C30A042F7D3DFF84C0589B2461803E0C3
S31500005B50DFF84415ADB24E19DDF83880049D404695
S31500005B60B8F1000F1BD0019521464846FFF742FFCA
S31500005B700246238879883878DFF820B5FFF70FFBCF
S31500005B80F0B12079C1061DD521464846FFF732FF00
S31500005B9000950346798838782246D8471CE0DDB15F
S31500005BA0214648460196FFF725FF02462388798855
S31500005BB038782E46DFF8E8B4FFF7EFFA0028E0D190
S31500005BC07E2009E00199CDF800A0434622463046E2
S31500005BD0FFF7CCFE00E0862005B0BDE8F08F2DE98A
S31500005BE0F843044688461646994600252179E8B2C8
S31500005BF0884221D2EAB2142320685A43871838888B
S31500005C00404517D131000AD0802E03D1397B0A06D0
S31500005C1005D40FE0402E0DD1397B4A060AD5B0F5E2
S31500005C207C4F0CDB3846FFF7EDFE484518BF5FEAB0
S31500005C30090004D06D1CD9E70020BDE8F283384680
S31500005C40FBE7134680B507E0134680B5402204E023
S31500005C50134680B5802200E0002200F007F800B16C
S31500005C60012002BD80B500234022F6E770B50C4640
S31500005C7015461E4600F099F8FF2801D1002070BD98
S31500005C8006E070B50C4615461E46002100F035F8B4
S31500005C902146DFF8EC4304EB001033462A468068C1
S31500005CA0BDE870409BE71346402201E00022FAE778
S31500005CB02DE9F84F82468B46904699460026FFF717
S31500005CC0D5FF08B9FF2016E00027DFF8B443DFF858
S31500005CD0A8532978F8B288420CD20001205C5045BE
S31500005CE008D04B4642465946FFF7CBFF00B1761C1B
S31500005CF07F1CEEE7F0B2BDE8F28F70B50022DFF848
S31500005D008033DFF874532E78D4B2B4420BD2240118
S31500005D101D5D854205D10D0007D01C44647BE50757
S31500005D2003D4521CEDE7FF2070BDD0B270BD80B524
S31500005D300021FFF7E2FFFF2801D1002002BD00F09D
S31500005D4061F8407B00F0010002BD70B50E460446C6
S31500005D500021FFF7D2FFFF2801D1002070BDDFF838
S31500005D60201301EB00153200687B00F0010114BF1F
S31500005D7040F0010000206873B14214D076B1284685
S31500005D80FFF7A4FD0FE0142200685143761C084477
S31500005D90027B01882046D20900F000FEA868F1B215
S31500005DA002799142EFD3012070BD0121A5E7DFF80A
S31500005DB0D0120001085C7047F8B50C46FFF7F5FFF6
S31500005DC001460020FF291FBFDFF8B42202EB0111B4
S31500005DD08968002915D0002214270D79D3B2AB4269
S31500005DE00ED2D6B20B687E43451C33441B7B26007D
S31500005DF001D11B0600E05E0648BF2846521CECE7B0
S31500005E00C0B2F2BD9E4901EB00107047F8B50C46D2
S31500005E101546FFF7CAFF01460022FF291CD00023C2
S31500005E204FF0140C01E0521C5B1C954800EB011668
S31500005E30DFB2B0680679B7420ED200680CFB07F7EE
S31500005E403844067B15B1760602D4EDE73706EBD566
S31500005E50D6B2A642E7D1F2BD0020F2BD002109E08C
S31500005E6010B50446012100F005F82046BDE81040B3
S31500005E7005F086B92DE9F84F86B0814605F09BF806
S31500005E807D490A7805904FF0000B0492DFF8F0A1E7
S31500005E9007E00AEB0010017B059881420FD00BF159
S31500005EA0010B04995FFA8BF0884246DAB9F1FF0FCD
S31500005EB0EFD04846FFF779FF8346FF283DD00027FD
S31500005EC03FE00328ACBFA26804F10802012000905D
S31500005ED00023002101A8FFF7C9FD761C2989B0B26D
S31500005EE088422DD2B2B20C2168684A4384182379BD
S31500005EF0D906F2D41AF808208DF804202988ADF8BE
S31500005F0006102079410628464CBF802140218DF895
S31500005F1008102188ADF80A102146FFF76BFDADF891
S31500005F200C002179E0784A07CBD5A2680328CDDB9F
S31500005F301268CBE7B9F1FF0FB1D007B0BDE8F08F1B
S31500005F407F1C4FEA0B604FEA10580AF1080050F820
S31500005F500800F9B202799142ECD20168FBB2142032
S31500005F604343CD182A8940F22D118A42A8BF07F073
S31500005F7055F80026B2E7704730B5047B01220023AE
S31500005F800C4205D1002030BD144218BF5B1C5200E4
S31500005F90D5B28D42F8D30069DBB250F8230030BD8C
S31500005FA04049401A8003020C00213F4809E52DE9CB
S31500005FB0FE4F002700284FF00108487D06D008B99B
S31500005FC0022407E0012804D1012403E008B90824CB
S31500005FD000E004240E980C9DB9460D9EDDF83CB0F9
S31500005FE08A46ADF800200193ADF830508DF83800A0
S31500005FF02C4800EB89052988BDF80000814224D190
S31500006000E978214221D0A9789DF8380081421CD335
S31500006010E9789AF80F00CA0608D5B0B12846FFF706
S31500006020BFFFBAF81010814201D00EE068B9BB4537
S3150000603013D0BDF8300087420FDAA9780198C15510
S3150000604032887F1CBFB2521C328009F10109B9F1B6
S315000060503C0FCDDB4046BDE8FE8F4FF00008F9E768
S315000060600000000014880500467506004A75060003
S3150000607018880500509B0600935D0120908B050053
S31500006080E0CA0020C4890500A48B0500F08A05003B
S31500006090A08B050000CB00203CC90020C1510000A8
S315000060A0BD510000D0880500C08905002DE9F847DC
S315000060B085B0109D0F9F0E9C0295019706468A4655
S315000060C0904699460094FFF766F8010003D002282F
S315000060D003D002D310E001200EE00CBF0120002007
S315000060E00021049103900295019700944B46424685
S315000060F05146304600F0FDF906B0BDE8F087F0B530
S3150000610085B00A9D0B9C00260127049603970294EE
S315000061100195009617E078B585B000F00BF880235E
S3150000612004E078B585B000F005F8402300F0E1F909
S3150000613006B070BD0A9C00250126019304950396BE
S3150000614002940095704700F0D4F905B0F0BDF0B5A3
S31500006150012785B004970A9D0B9E0C9C0027039788
S31500006160029401960095EEE77FB5099C089D0A9E6C
S315000061700294002403960195009410E038B584B08B
S3150000618000F006F84023FFE700F07DFA05B030BDC9
S31500006190089C00250193039502940095704700F032
S315000061A072FA04B070BD2DE9F84F84B0DDF838906E
S315000061B090461C4605468A464B4622460026ADF8C2
S315000061C00060FFF753FDB34607008DF80450ADF8A5
S315000061D006A08DF80840ADF80A80ADF80C904FD0B7
S315000061E001A9FFF71AFC00284AD0ADF80280002466
S315000061F0DDF83C90DDF840A0BDF8008015E0B1B2B6
S3150000620049450FD2FFF79AF8A878FFF788F85FEAB2
S315000062100A0006D02879C10754BF05200720FFF7DA
S315000062207EF8761C08F10108641C3989A0B2884200
S315000062301ED2A2B20C2178684A433B888518B3F572
S315000062407C4F09DA288801AA2946ADF80A003846A3
S31500006250FFF7F9FB0028E7D02888BDF8021088422E
S31500006260CDD20BF1010BDDE7002005B0BDE8F08FC4
S31500006270B6B21FFA8BF006441FFA88F08642F3D1B5
S315000062800120F2E72DE9F04F8FB0DFF84C14DFF86C
S315000062904C244FF0000A05910492DFF8448401E093
S315000062A00AF1010AFFF75DFA5FFA8AF1814280F08E
S315000062B09A804FEA0A604FEA105B18F80B20DFF865
S315000062C0241400F0D0F9DFF8201400F0C9F90027F3
S315000062D08DE0E07808E0A078FFF763FA0028F8D0B0
S315000062E006A8FFF7B0F8801C82B2012306A9042095
S315000062F004F03CF828884946FEF779FB4FF6FF7113
S31500006300884207D0DFF8E42352F83020DFF8E013A4
S3150000631000F0A9F9761C2989B0B2884266D2B2B2D9
S315000063200C2168684A43841806F078FE20794106F5
S31500006330208804994CBFDFF8BC33DFF8BC330090EB
S315000063402A88042003F023FF21462846FFF752FB44
S31500006350814620B90599042003F019FF05E04A4655
S31500006360DFF89813042003F012FF2079810748BF55
S31500006370DFF88C1305D4C1064CBFDFF88813DFF8AD
S315000063808813C0070191DFF8841354BF55A056A0A7
S315000063900090E378A278042003F0F9FE207906AA9B
S315000063A001924106CDF800904CBF80234023002087
S315000063B02121039002912288298818F80B0000F009
S315000063C062F9862804D1DFF8481300F049F9A1E7FD
S315000063D0A078FFF7DEF900283FF47DAF06A8FFF7A7
S315000063E02DF8401C80E70FB0BDE8F08F7F1C08F148
S315000063F0080050F80B00F9B202799142BFF450AF91
S315000064000168FBB2142043430026CD1883E72DE92B
S31500006410FE438EB0199C042C55DD189D1E4617466A
S315000064208846814602950196009743464A46DFF81C
S31500006430E41200F05BF804A9212005AA039102905A
S315000064400192009533463A464146484600F01BF90C
S3150000645005003BD19DF81000412818BF422804D101
S3150000646005A8FEF7EBFF451C0BE0432818BF4428A0
S3150000647004D105A8FEF7E7FF851C02E006F0F4FD4F
S315000064800546EDB2281D84421DDB3846FEF756FF51
S315000064900020FEF744FF9DF810009F4CFEF73FFFDB
S315000064A020882918522908DA9C4B2A4605A918443F
S315000064B000F046F920882818208000953B46424681
S315000064C0974900F013F811B0BDE8F0833846FEF79F
S315000064D035FF2846FEF723FF00953B464246914985
S315000064E0EFE70000524F000052570000042003F06F
S315000064F048BE2DE9F84F88B0129C81460E461746D5
S315000065009846002004908DF81490ADF816608DF82A
S315000065101880ADF81A70ADF81C40009000230022D8
S3150000652004A905A8FFF7A2FA04987F4A38B901978B
S3150000653000964B467D49FFF7D9FF86208DE01598DA
S3150000654090B904999DF850008B78984204D0784908
S3150000655000F089F88D2080E00979C80704D47549D0
S3150000656000F081F8882078E00498139D01794807A7
S3150000657027D50499886841680498029181688868DB
S31500006580049901908878FEF7ADFD834604985B4632
S31500006590C1788DF8001003290A4629462BDA02A88D
S315000065A0FEF705FD9DF8002082465B46294601A8B8
S315000065B0FEF7FDFCBAF1010F1CBF4FF0FF31884218
S315000065C028D01698002844D100F050F8FEF76CFE4B
S315000065D0010042D100F04AF8FFF753F901003CD11F
S315000065E00120009000232A46002105A8FFF73EFA65
S315000065F0010011D031E00298FEF7D9FC012809D03C
S315000066009DF8002001985B462946FEF7D0FC10F164
S31500006610010FD6D1872020E0049B32464946284602
S31500006620FFF7A9FC02959DF850000094434601909F
S315000066303A463146484601F0C3FD00F017F8FEF72A
S3150000664032FE009443463A4631464846FFF7F4F890
S3150000665002E0394900F004F8002009B0BDE8F08FE7
S31500006660042003F08EBD042003F08BBD039504982F
S3150000667043463A46C1789DF8500002910094019035
S31500006680314648467047F0B585B01C460A9E0B9DBC
S315000066900C9B002701978DF80800ADF80A108DF8BD
S315000066A00C40ADF80E20ADF8106000972A4601A9FF
S315000066B002A8FFF7DBF9040005D10D9840B1019956
S315000066C08A78027004E0892802D11C49FFF7C8FFC6
S315000066D0204605B0F0BD0000208C0500FC8B0500AF
S315000066E0E0CA0020B08B0500BC8B05004099050070
S315000066F0A88B0500108C0500188C0500288C050059
S31500006700448C05004C8C0500548C05002C8C05002F
S315000067105C8C0500688C05003A5C012040CB0020AB
S31500006720C08C05009C8C0500148D0500EC8C0500C2
S31500006730208D0500348D0500488D0500688D050007
S3150000674070B5814224D210441144401E491E10E007
S3150000675011F80139121F00F8013911F8014900F842
S31500006760014911F8015900F8015911F8016900F8B9
S31500006770016993B2042BEBDA93B2002B1EBF11F81A
S31500006780013900F80139521EF6D170BD00F00DF83E
S3150000679093B2042BFADA93B2002B1EBF11F8013B19
S315000067A000F8013B521EF6D170BD11F8013B121FD5
S315000067B000F8013B11F8014B00F8014B11F8015BA1
S315000067C000F8015B11F8016B00F8016B70471300CC
S315000067D003D00A46194606F059BC704710B5034661
S315000067E000E0521E90B218B100F003F8F9D0001B79
S315000067F010BD13F8010B11F8014BA042704770470A
S315000068000C480D4908600020704700B170207047A1
S315000068100020704780B500F013F8FF2801D1A320AF
S3150000682002BD002002BD00207047704700BF03482C
S3150000683000787047529B060094CB0020E0CA0020E7
S3150000684080B5FFF7B2FAFF2818BF002002BD00216D
S315000068500170704700F05DB870B5044616460D46E7
S315000068603046FFF7D7FF002020703046A847BDE826
S315000068707040FFF7D8BF01223D493E48ECE70122B0
S315000068803D493E48E8E701223D493E48E4E7F22219
S315000068903B493D48E0E780B5012006F013FD3B4843
S315000068A006F0A4FC3A49087001BD80B506F01EFD4D
S315000068B0012805D036480078BDE8024006F081BCC4
S315000068C001BDF0B5002400E0641C324D2E88E3B211
S315000068D0B3420ED2E7B20C256F432F4B3B441E78D2
S315000068E0864201BF5D888D421E799642ECD11846DC
S315000068F0F0BD0020F0BD80B519B906F0E3FB00201D
S3150000690002BDB1F1004F02D206F0E6FBF7E7022026
S3150000691002BDB1F5000F3CBF0902FFF7ECBF022034
S31500006920704770B505461E46FFF7CBFF04000ED034
S315000069302846FFF7FCF950B1A0683146FFF7DBFFA8
S3150000694028B904990598A0716171002070BD0220D4
S3150000695070BD1CB5049C0093134601940022FFF7FA
S31500006960E0FF16BD80B500230093FFF7F2FF02BDDE
S315000069707BFF020070CA00202F03030078CA0020A4
S31500006980BD00030080CA002088CA0020F4830500E9
S315000069906F4F012020C3002000B7002080B5FFF70D
S315000069A090FF20B1806800210170002002BD022006
S315000069B002BD0022F2E7FEE736E0DFF818010178B3
S315000069C0022901DB012070470020704738B50446D4
S315000069D0DFF800512878A04203D02146FEF708FCD4
S315000069E02C7031BD10B5DFF8F040207860B900F0AA
S315000069F01BF806F0A1FC0121217028B10288B2F52E
S31500006A00817F24BF007D2070207810BDDFF8C41080
S31500006A100978012803D10129D8BF022002DD10B967
S31500006A20012900DDD2E770472A480178022900DBF8
S31500006A30704710B506F062FC02462849012003F0B3
S31500006A40A0FB0120FFF7E2FF254C2078FF281BD191
S31500006A5006F072FCB8B140881822FF210006400EED
S31500006A6000F0010020701F48FFF7B1FE20780128D2
S31500006A700AD1FFF7B7FF052806DBD9211A48BDE87A
S31500006A80104006F0A9BC207010BD80B5FFF7CCFF02
S31500006A90BDE8014006F050BC70B504460D461646EA
S31500006AA0FFF7C2FF0420FFF791FF32462946204632
S31500006AB006F07AFC044600F003F8204670BD8146D5
S31500006AC0022083E780B5FFF7AFFFBDE8014006F07F
S31500006AD077BC0000E15D0120E25D012018CE0500D3
S31500006AE0AAC30020BC1101200CCE050080B57B494D
S31500006AF0022003F046FBFF20FFF7B2F9FF2003F068
S31500006B008EFEFF2007F012F800F040F8FEF7BEFBFD
S31500006B1000207349088001BDF8B500F069F80098B7
S31500006B2005B000F0010000BD18B587B000226C4B1F
S31500006B301A8001A9684606F0ABF99DF80F00694C6A
S31500006B400822A070BDF80C0001A92080201DFFF7C7
S31500006B50F7FD9DF814000022002160732046FEF721
S31500006B6096FB08B010BD80B5684606F09BF99328E1
S31500006B7009D15D4801680A78012A8DF8002004BF12
S31500006B8002218DF800109DF8000002BDF8B507F04F
S31500006B900BFA002814BF0020022007F062FE5348BB
S31500006BA007F069FE524807F069FE00F021F80098E8
S31500006BB0C1071BD54F49022003F0E3FA4A48016892
S31500006BC00878012808BF022007F00BFB07F0EEF952
S31500006BD000F00EF8009840F080000090684607F03C
S31500006BE01FFE00F008F8032003F05EFA05B000BDB2
S31500006BF0684607F00BBE78B58FB005A83E49282237
S31500006C0004F0A0FA05F09BFF08B100201AE001A8E5
S31500006C1003F03BFA0400394D394E02D00090394B4F
S31500006C200AE005A8FEF731FB05A901A807F0A5FAB9
S31500006C30040006D00090344B32462946022003F069
S31500006C40A0FA204610B070BD80B52548018841F4F1
S31500006C500071018007F055FE48B102462B4902201B
S31500006C6003F08FFA07F0A5FDBDE801403EE701BD40
S31500006C701FB504461A48008810F08F0F11D0902CCB
S31500006C8002D1FFF751FF1FBD912C25D0029020485D
S31500006C90009001941F4B1A4A1F49022003F071FA13
S31500006CA01FBD800504D5912C16D1FFF71FFF1FBD10
S31500006CB0FFF79EFF902C0FD10098C1070CD5420814
S31500006CC052000092002101910291ADF80C10684625
S31500006CD007F0A6FD08F089F81FBD0000847F0500B7
S31500006CE0CA4C012034C7002094CB00200088100233
S31500006CF00070EF05547F0500A07F0500C87F0500E2
S31500006D00DC7F0500E47F0500FC7F0500148005009C
S31500006D107C80050064800500448005001CB5DFF812
S31500006D20AC4A0A2200212046FFF751FD60220021CD
S31500006D30DFF8B40CFFF74BFDA02060800521202072
S31500006D408DF80410009001AB10222121F220FFF7EC
S31500006D50E2F913BD0020DFF8741A00B508704FF091
S31500006D60FF3187B00491002100238DF818000390AD
S31500006D7002900191009304AA08F0BAFB07B000BD87
S31500006D8018B5DFF8484A207A87B0C10710D5002227
S31500006D9004928DF8182008F035FF0020002100230A
S31500006DA02072039102900190009304AA08F0A0FBC0
S31500006DB00020DFF8381C087008B010BD80B5FFF75A
S31500006DC0C9FF0020DFF8281C087001BD2DE9F04737
S31500006DD000F00108C0F342048946924606094509B7
S31500006DE0DFF8100C016806F0010605F001050A68D7
S31500006DF05079F22826D1DFF8D479387820B109F015
S31500006E003CFAF98888421DD1B8F1000F18D009F074
S31500006E1034FAF8800120A021E207387079807C706E
S31500006E2046BF4FF47A7101FB09F1DFF8CC1B7D7187
S31500006E30DFF8BC0B06F050F926B187F804A001E094
S31500006E40FFF788FF0120BDE8F087002070472DE995
S31500006E50F34F8FB0074615469846DDF884900AA88A
S31500006E60142109F02BFA780A00F0030AC7F341103F
S31500006E708DF81800F80A00F0070BDFF8900B0024D5
S31500006E8038400828DFF86C0B016808BFA1460A796C
S31500006E90042A08BF01242B001A9D08BF0AAB05B9B6
S31500006EA00AAD1F9E06B90AAE109ACDF8008007F00B
S31500006EB0070107A809F0BAFA002854D0DFF8501BDA
S31500006EC0012003F064F900F0F1F84CD1BAF1010F9A
S31500006ED049D09DF82400C0B1022844D100220821DF
S31500006EE007A803F0C3F800283DD107F018001828BA
S31500006EF039D0ABF10500022835D39DF8180068B9E2
S31500006F00F8060BD47CBB85202BE0079858B310F10C
S31500006F10070FEAD310F1010F25D1E6E71E9A209854
S31500006F201C9904921B9B9DF8182001900091CDF8A6
S31500006F3014900396029507A9384609F02CFE38B13D
S31500006F40DFF88808417888070DD5FFF703FF0AE0C8
S31500006F50380708D509F053FBFF2808BF002C02D1DB
S31500006F608920FDF74BFF012011B0BDE8F08F2DE918
S31500006F70F0438FB08146884616461D46169C0AA8E1
S31500006F80142109F09BF904B90AAC00F08FF84ED130
S31500006F90189F2946179A199DF02F49D0F32F61D1D2
S31500006FA000228DF82420079200293CD10AF018F817
S31500006FB080453AD1DFF8345A2878DFF8104810B106
S31500006FC0207A810764D505F0BCFD0B3840F010002F
S31500006FD004AA01238DF81000002101920093039169
S31500006FE00291F32307AA012008F082FA01202072F9
S31500006FF005F0A7FD06F10B0188420BD001200B36E8
S3150000700000FA06F10022032008F045FD207A40F040
S31500007010FD0002E0207A40F00200207241F2883141
S31500007020284606F059F8012033E0FFF7A9FE2FE0C5
S3150000703019F007008DF8180008BF049101D000F080
S315000070402BF809F0CDFF804503D100F036F8F02388
S315000070501AE0002000210023039002910190009382
S3150000706004AA13E0F72F03DAA7F1B003102B0FD20F
S3150000707019F003008DF8180008BF049101D000F044
S315000070800BF800F01AF83B4604AA012008F030FA83
S3150000709000200FB0BDE8F08302218DF818108DF89E
S315000070A019200822214604A8FFF74ABBDFF8440945
S315000070B001680A685079F2287047002000216A1C8E
S315000070C00390029101922B7800937047002070473D
S315000070D02DE9F047044662688846002192B2404690
S315000070E0FDF71CFF207C08F1020530B9A2680021DB
S315000070F02846FDF718FF2D1D07E0022805D10822B6
S3150000710004F1080100F09EF80835207C022804BF2F
S31500007110607C05F8010B6168880403D5A28A00F03B
S3150000712096F8AD1C606841040FD5A07D002105F8D6
S31500007130010BA26928462D1DFDF7F5FE102204F16C
S315000071401C0100F07FF8103507E0800605D5A2691E
S3150000715000212846FDF7E7FE2D1D20794FF00C0A89
S3150000716041060ED500F05EF800F061F805D100F09A
S3150000717067F800F06AF800F04EF87F1CF9B20229B1
S31500007180F2DB6068C10517D500F04CF8FAB20AFBCD
S3150000719002F204F12C018E183378022B08D1728882
S315000071A000F055F8B288AD1C00F051F800F033F845
S315000071B07F1CF9B20229E9DB04F14400017805F8E5
S315000071C0011B227902F01802182A1CBF407805F824
S315000071D0010B6268100403D5120C00F038F8AD1CE0
S315000071E06068C10312D500F01DF800F020F809D13F
S315000071F000F026F800F029F899F80000AD1C0A30D6
S3150000720089F800007F1CF9B20229EEDBA5EB080124
S3150000721088B2BDE8F08799F80000AD1C401C89F8DB
S31500007220000070470027A94605F8017B7047FAB2AF
S315000072300AFB02F204F12C018E183378032B7047F7
S315000072400822B11C2846FFF77BBA7289083500214F
S315000072502846FDF763BE2DE9F84F0F46B6B000F09D
S315000072600701C0F3C1008DF80410009093469846BC
S3150000727007A814210026002509F020F8DFF8741766
S315000072800968BBF1000F087908BF0DF11C0B002837
S315000072904DD109684879F2283CD10FA9E8B209F026
S315000072A033F9002836D19DF83C00FF2818BF761C1C
S315000072B06D1CE8B20428F0DD9DF80001F4B2DFF899
S315000072C0545906900098DFF85099DFF850A960BB32
S315000072D09DF804103A46CDF800805B460CA809F0EC
S315000072E0A5F8002800F07F800CA809F064F906468E
S315000072F0FF2822D000200122FF230590049003924C
S3150000730002930194009000F074F80FA9304609F03A
S31500007310FBF800286BD1288809EB00010FA8FFF7BE
S31500007320D7FE2988401828805BE0009801285AD1AA
S315000073309DF80001F6B2B04209D3002105910491EF
S31500007340039106998B2202910194009247E0002056
S31500007350059006980021FF22049103920290019461
S31500007360009100F046F800270024B8469DF800B1C9
S315000073700FA95FFA88F009F0C7F8002837D19DF801
S315000073803C00FF2815D07F1CFAB2934511D221A9E3
S315000073900FA8FFF79DFE06462888311852290ED2FF
S315000073A0324621A94844FFF7CBF92888641C3618D1
S315000073B02E8008F101085FFA88F10429D8DD89F8E2
S315000073C00640FDF719FD74280DD1002005900390A5
S315000073D006980021FFB2049102900197009100F0F7
S315000073E008F8FDF709FD012037B0BDE8F08F002051
S315000073F0FAE753460B2221210120FEF7E3B8F228D3
S315000074002DE9F04F4FF0000AA7B008BF2129D0465A
S315000074104CD1112A02BF802B3098002846D1319DCD
S31500007420052D43DD1120FDF789FFDFF8E8472688A3
S315000074300027DFF8E497361DB6B2B3466946F8B2C0
S3150000744009F062F830BB9DF80000FF280FD012A9A2
S315000074506846FFF73DFE8046301885421CDB4246F3
S3150000746012A909EB06004644FFF76AF9B6B27F1C7B
S31500007470F8B20528E2DBA6EB0B065FEA0A000ED19E
S315000074800020FDF74CFF4320FDF749FFB0B2FDF7A2
S3150000749055FF06E000200AE04FF0890AEBE7FDF70A
S315000074A03EFF20884FF0010836182680404627B058
S315000074B0BDE8F08F2DE9F04F8BB0C44E307868B13F
S315000074C00A93187A002804BF1B68002B06D0199C63
S315000074D0E02C18BFE22C01D0179B0BB1012013E161
S315000074E0DDF874901C9DDDF868A0DDF85480149FCB
S315000074F08DF824208DF82510834609F071FD9DF83E
S3150000750025100690189807919DF8241002900A9865
S31500007510CDF820A0CDF8149004950394019700911E
S31500007520437A024601684BEA071040EA881444F49D
S31500007530006008F01EFFFEF7BCF80446F22020713A
S315000075406071052009F072FE707910B100F012F832
S315000075500DE09DF82400A0F10C05E088A57240F02E
S315000075600200E0800A980BF0A1FA00F088F800F01B
S3150000757039F9B3E7F1880020FEF772B82DE9F84F24
S315000075808AB005461C46207A002804BF2368002BD3
S3150000759073D030B9236813F1070F02D313F1010F2B
S315000075A06BD102280AD10023D8B2205C18B95B1C23
S315000075B0DEB2082EF8DBDBB2082B5ED01698002868
S315000075C05BD1179E237A3000159818BF43F0080345
S315000075D07E2D18BF7F2D03D143F4007300B1042024
S315000075E0149D43EA8013DFF8E4912F0147F4006706
S315000075F099F805003B43ADF826300F468DF8242058
S31500007600DDF868A0DDF87080DDF874B090B109F09F
S31500007610E7FC00F03AF8002E14BF2020052009F000
S3150000762005FEFEF746F800F0D9F8B9F80610FFF7A0
S31500007630A2FF20E009F0D4FC00F027F8FEF739F8A5
S3150000764000F0CCF89DF82410A1F10C05C1888572D4
S3150000765041F00201C18036B17F0900F0B9F83F0E52
S315000076602037B8B200E0052009F0E0FD20460BF017
S315000076701DFA00F004F800F0B5F8012044E00146D8
S31500007680EAB24FF6FD70FDF7FFBF06909DF8640065
S315000076901899CDF820A003909DF824000797CDF8FF
S315000076A014B0CDF81080029101950090637A21689C
S315000076B0BDF82600224608F05CBE00E000BF2DE9BA
S315000076C0F84F8AB0DDF85080DDF854E0DDF858C098
S315000076D0179FDDF86090199EDDF868A01B9D1C9C25
S315000076E0DDF874B007950894CDF824B0CDF818A04D
S315000076F00596CDF810900397CDF808C0CDF804E0B4
S31500007700CDF80080FFF73AFF0BB0BDE8F08F2DE90A
S31500007710F84F8AB02D4E3478002C1EBF347A04F010
S315000077200304012C4FD008257E281598149C08BF09
S315000077304FF40275800140EA04108DF824200F46AC
S3150000774040F400602843ADF826007079DDF860B09B
S31500007750DDF86480DDF868A01C9DDDF8749068B1E2
S3150000776009F03EFC00F041F8FDF7A3FF00F036F803
S31500007770202009F05BFDFFF7FDFE22E01E4609F022
S315000077802FFC00F032F8FDF794FF00F027F87F0990
S315000077909DF8241000F01CF8A1F10C04C1883F0EDE
S315000077A0847241F00201C1802037B8B209F03EFD73
S315000077B030460BF07BF90146E2B24FF6FD70FDF75D
S315000077C063FF00F00FF801209EE70000200E012065
S315000077D007F00607C7F103077F077047F22101711B
S315000077E041717047002009F021BD06909DF82400E4
S315000077F0CDF820A007970090BDF82600CDF814908C
S315000078000495CDF80C80CDF808B001940023002231
S31500007810002108F0AEBD2DE9F84F9AB02B9892469C
S315000078200F4602461C46FF2A00F0D98048214A43EB
S31500007830DFF8EC3319680D1DAB58091D43F40073CE
S315000078408B5043F48063AB5008A908F05DFE002816
S3150000785040F0C580079494F8089000214FF00C087A
S3150000786008FB01F208A8104490F82C00002814BF69
S31500007870032849F0080903D0022808BF49F0200967
S31500007880491C0229ECDB9DF82400299D279C010652
S315000078902499259848BF49F0100949EA8112E02D3C
S315000078A042EA002040F4A0401FFA80F918BFE12DFB
S315000078B003D1DFF87023107810B10CB149F40069D8
S315000078C08DF818A0289E01B95646DDF8B4B0DDF84B
S315000078D0B0A009F085FBFF2105910490CDF80CB00E
S315000078E0CDF808A00195009607987F09437A0246CD
S315000078F00168484607F0060708F000FDC7F10307D0
S315000079007F079DF818A03F0E07F120054FF00009EC
S31500007910079FAAF1090B08FB09F108A8084400F122
S315000079202C063078002818BF03280ED1FDF7C1FEBB
S31500007930F221002C0171417114BF2020052009F0AD
S3150000794075FC7189FFF717FE1DE002281DD1FDF7B2
S31500007950B0FEFFF743FFC18880F80AB000F04EF88A
S3150000796014BFA8B2052009F061FCB0884FF6FF717C
S31500007970884204BF38460BF099F8014670885FFAD2
S315000079808BF2FDF752FEFFF72DFF09F10109B9F160
S31500007990020FC0DB9DF82400010620D5FDF789FE05
S315000079A0FFF71CFFC18880F80AA000F027F814BF73
S315000079B0A8B2052009F03AFC0998810448BFBDF831
S315000079C0348003D438460BF071F8804638460BF005
S315000079D06DF852464146FDF728FEFFF703FF0120EA
S315000079E01BB0BDE8F08F00002C0E0120940E012084
S315000079F08C0E012018CC002000710200002C41F0F2
S31500007A000201C1809DF86410C1727047080002002F
S31500007A10F8B60500012070472DE9F84F06460C46DA
S31500007A208048017A9EB01546C80703D59DF8B41064
S31500007A30E32966D19DF8A0000B93002802BF79497F
S31500007A400878002810D1184608F0B5FDFF280BD09D
S31500007A500CA908F059FD002853D10D98410450D4C3
S31500007A609DF8460000284CD1002E8DF8286018BFDE
S31500007A707C2E05D07F2E44D16A490878002840D054
S31500007A80684908788DF82A408DF82950299C2A9D46
S31500007A902B9EDDF8B090DDF8B8A02F9FDDF8C080F2
S31500007AA0DDF8C4B0002862D0280003D000F087F8C3
S31500007AB0FFF700FD9DF828007F2804BF9DF8A00071
S31500007AC0032803D100F064F803214AE09DF8B400CE
S31500007AD0E0282CD020D3E22814D002D3E32816D0F5
S31500007AE01AE09DF8A010E120059000F061F89DF8DD
S31500007AF02800CDF824B000F045F800F053F8FFF761
S31500007B00DCFD3CE000F05DF8FFF7D8FD37E000F063
S31500007B1058F8FFF7FCFD32E09DF828107C291AD1B1
S31500007B20A0F1E4020C2A24BFB038102823D29DF815
S31500007B30B4009DF8A0100590CDF824B0009100F097
S31500007B4021F800F02FF80B9B9DF829209DF82A10AC
S31500007B509DF8280008E07F290DD100F019F89DF85E
S31500007B60A01000F025F87E20FFF708FD07E09DF83D
S31500007B70B400E22803D000F022F8FFF74CFE1FB055
S31500007B80BDE8F08FCDF820800797CDF818A0704794
S31500007B909DF8B400CDF824B0CDF820800797CDF835
S31500007BA018A00590CDF810900396029501947047A1
S31500007BB000910B9B9DF829209DF82A1070479DF88F
S31500007BC0B4009DF8A01005900B9B00919DF829200C
S31500007BD09DF82A109DF82800CDF824B0CDF8208015
S31500007BE00797CDF818A0CDF810900396029501944A
S31500007BF07047002800D0704710B50A4C207AC1079C
S31500007C0007D507F0FFFF00202072BDE81040FFF700
S31500007C10B7B810BD3A5C012040CB002004B7050080
S31500007C20B0BF0020200E0120912800D0704780B5FB
S31500007C3000F042FF18B9BDE801400BF05DB801BD88
S31500007C401CB5059C1CB1049C009403F0F7FE13BD03
S31500007C5030B50246DFF8BC080023DFF8BC5803E065
S31500007C60D45C5B1C604068438B42F9DB30BD024646
S31500007C700846142324210BF043B90A46014614236F
S31500007C8024200BF068B9902800D0704780B50BF01F
S31500007C90F3F9BDE801403FE330B585B00024DFF8D5
S31500007CA07C586946E0B2FFF7E2FF9DF8010038B163
S31500007CB09DF8000020B91820604301212844017472
S31500007CC0641C062CEDDB00F027FB05B030BD2DE96A
S31500007CD0F04F002497B0A046A346A146002505A96B
S31500007CE0E8B2FFF7C4FF0BF00EFA18226A43DFF87A
S31500007CF02C188E183268821A9DF8150000280FD0AD
S31500007D009DF81410002923D1BDF820104FF47A7382
S31500007D1059438A4208D3317C41B9BDF82210002963
S31500007D2000F0B6804B439A42C0F0B28004A903919A
S31500007D30BDF81C1021220EAB0292019300919DF812
S31500007D401A30BDF81820BDF81610FEF79CFC002866
S31500007D5040F09E809DF81000FDF70FFD20B10EA8A3
S31500007D60FDF76CFB401C03E09DF8100005F07CF964
S31500007D705FFA80FA0AF10302DCB120799DF815302A
S31500007D806188834204BFBDF816308B420FD19DF83F
S31500007D901A30DB095B4504BFBDF81C30434506D1EC
S31500007DA0DFF87C371F88D2B2D219914540DA00F04D
S31500007DB07DF8FDF77EFC04469DF81A00DFF864178F
S31500007DC000915FEAD01BBDF81C20BDF8161014BF49
S31500007DD0002008200A23FDF7EAFB9DF815004FF462
S31500007DE08251E1802071BDF81C804FF0FF09002709
S31500007DF00AA9F8B204F03CFC002802BF9DF829004D
S31500007E009DF81510884202BFBDF82A00BDF816106D
S31500007E10884209D19DF835109DF828002246FDF7C5
S31500007E2053F8484598BF81467F1CF8B20228DFDD2B
S31500007E30BDF81800FDF782FA9DF81000FDF76FFAFD
S31500007E4051460EA8FDF7AAFA002030740BF05BF934
S31500007E503060002000909DF810000EAB524641287D
S31500007E6018BF42280AD1AAF10101C9B20DF13900A1
S31500007E70FFF7EEFE00906B46042201E0092A07D2C6
S31500007E800020C6E90200194606F10800FEF758FC74
S31500007E906D1C062DFFF623AF1CB16188207900F01A
S31500007EA005F800F039FA17B0BDE8F08F10B50C46AA
S31500007EB0FCF7E0FC08B9032C0BD1DFF86C06FDF7E4
S31500007EC09DFBB42808BFFDF7A7FBBDE81040FDF7F2
S31500007ED0AEBB10BD2DE9F04F87B00546687D002684
S31500007EE02C7D0028DFF83C1600912F6807BF08207C
S31500007EF04FF0400800204FF080082A8A072379882F
S31500007F00FDF755FB8DF80580AA89A1B2C81C9042E1
S31500007F107BDAA868641C415C8DF80610A1B2FDF7F7
S31500007F206BFA80469DF80600A41C10B1012852D0B9
S31500007F305BE0A868A1B2641C425CA1B2A41C8DF8E7
S31500007F400420AA894FF0000AFDF756FA074600F00A
S31500007F5066F881469DF80400FDF779F860B99DF84A
S31500007F60040005F081F8AA898346A8685B46A1B299
S31500007F70FDF72BFA82465C44298A28689DF805306D
S31500007F800091418840794246FDF7D7FC00281FBF83
S31500007F9080789DF8041088428D2727D1286841797A
S31500007FA08DF80910286841889DF80500ADF80C8009
S31500007FB0ADF80A108DF80E00298AADF81470ADF8E8
S31500007FC01690ADF81010CDF818A002A800F0FEF932
S31500007FD0070099D00AE000F022F89DF80520034634
S31500007FE04146284600F0A4FAF2E785273846FDF711
S31500007FF096F99DF806000126FDF791F94046FDF732
S315000080009DF9852F7FF480AF03E016B90020FDF7B8
S3150000801086F9FCF7F1FE012007B0BDE8F08FAA89CA
S31500008020A868A1B2A41CFDF7E7B92DE9F04786B010
S315000080300746787D3D7DDFF8EC14002800913C680A
S315000080403A8A07BF08204FF0400800204FF080080A
S3150000805009236188FDF7ABFA13E0398A386843468D
S315000080600091418840794A46FDF767FC04001FD11C
S315000080708620FDF754F90020FDF751F94846FDF733
S315000080805DF9BA89A9B2CB1C9A4254DBB8686D1C5B
S315000080900024465CA9B2FDF7AFF9AD1C8146002E5F
S315000080A0DBD0012E04D08520FDF739F93046E3E711
S315000080B04FF0000A01A95FFA8AF0FFF7D8FD9DF894
S315000080C00400B04201BF39689DF805004A79904224
S315000080D01ED1BDF806004A88904204BFBDF80800CC
S315000080E0484515D19DF80A00404502BFBDF80C0071
S315000080F03A8A90420CD19DF8040000B3BDF81000F6
S31500008100FA88904202BF9DF812000979884216D07B
S315000081100AF1010A5FFA8AF00628CBDB8B20C3E757
S315000081205FFA89F0FDF7FBF84FEA1929641E2BE088
S31500008130BDF81400A3E7FCF75FFE01202BE1002049
S31500008140FDF7EDF83046FDF7EAF84846FDF7F6F894
S3150000815016B1012EECD094E7002C92D0A078FDF752
S31500008160DEF8BDF81000FDF7E9F8BDF81200FDF7DE
S31500008170E5F8A078FCF76BFF002882D1A07804F020
S3150000818073FF0446DDF81490E0B20028C8D178E702
S3150000819010B50024E0B200F001F9641CE0B2062834
S315000081A0F8DB0021DFF884030170002010BDB12147
S315000081B080B5062802DA00F003F90021084602BD60
S315000081C02DE9F04387B006460F46904699460E9C29
S315000081D0002502A9E8B2FFF74AFD9DF8080000282D
S315000081E004BF9DF80900B0420FD1BDF80A00B8429D
S315000081F004BFBDF80C00404507D19DF80E00484568
S3150000820004BFBDF81000A04206D06D1CEAB2062AD3
S31500008210DFDB07B0BDE8F0830F9F00202C460190FE
S31500008220109D384604F020FF412F0146284618BF0E
S31500008230422F08D1FDF702F90146681CFFF708FD39
S31500008240019001A80421E4B218256C43B34E0091B5
S315000082502644D6E90223FCF72BFB04460D46384696
S31500008260FCF7F5FE012803D1002D08BF002C07D12D
S315000082700028CED1002106988D4201D88442C8D369
S315000082800122327400F048F8C3E710B542784B7803
S315000082909A4202BF42884B889A421AD182888B88BA
S315000082A09A4202BF82798B799A4212D102890B894E
S315000082B09A4202BF02780C78A2420AD13AB1828968
S315000082C08B899A4202BF807B897B884201D101203B
S315000082D010BD002010BD30B585B00446002500F065
S315000082E096F921466846FFF7D0FF78B900F08BF97A
S315000082F0F5DB002500F08BF99DF8010030B16D1C0F
S31500008300E9B20629F6DBFF2005B030BD2146E8B20A
S31500008310FFF7B3FCE8B2F7E72DE9F8474FF0FF396E
S3150000832085B0C8460025DFF8F4A14FF47A7700F04F
S315000083306EF99DF8010008B39DF80000F0B9BDF88C
S315000083400C60BDF80E400AF0DEFEEBB218214B437E
S315000083507E437C435AF8031053444A46411A187C1C
S3150000836018B18E4204D3721A05E024B18C4201D2B0
S31500008370002200E0621A424598BF904600F043F999
S31500008380D5DB6A4818F1010F03D04146FEF7B3FA70
S3150000839001E00021017006B0BDE8F08718B585B090
S315000083A004466946FFF763FC00228DF80120694602
S315000083B02046FFF762FC6846FCF75BFF06B010BD7F
S315000083C080B5FFF7EBFFBDE80140A5E72DE9F041D9
S315000083D086B005462889FF2601270090AB79AA8832
S315000083E069886878FDF7A9FA08B986208EE0E889D9
S315000083F020B1A989884238BF8720F7D3002401A974
S31500008400E0B2FFF734FC9DF804109DF80500002942
S3150000841004BF6978884213D1BDF806106A88914274
S3150000842002BFBDF80810AA88914209D19DF80A102A
S31500008430AA79914202BFBDF80C102A89914214D044
S31500008440002802BFF0B2FF282646641CE0B20628C8
S31500008450D5DB3446E8894FF6FF71884207D117B954
S31500008460E0B2FFF7ADFF002050E00027F2E700265C
S31500008470002804BFA88988420AD11422294601A8E7
S31500008480FEF75EF901A80AF002FE08B101270126EF
S31500008490E0B2FF2808BF892038D017B300208DF836
S315000084A004006978E7B2062F8DF805106888ADF8E4
S315000084B00600A888ADF80800A8798DF80A00288972
S315000084C0ADF80C000DDA18204743DFF850800AF0AB
S315000084D01AFE48F8070008F1080200203A44C2E9EB
S315000084E000003EB9A889ADF81000E889ADF8120081
S315000084F02869059001A8FCF7BCFE050005D101A975
S31500008500E0B2FFF7BAFBFFF707FF284606B0BDE863
S31500008510F0810000C59D1C819301000160C7002009
S315000085203A5C0120C49B0600417C00003CD8002038
S315000085302DE9F84785B007469A46FF26012400250F
S315000085408846914600F063F89DF80000012801BFB7
S3150000855038689DF80110427991421BD1BDF802108E
S315000085604288914204BFBDF80410414512D19DF8DE
S315000085700610494502BFBDF808103A8A914209D152
S31500008580BDF80C10FA88914202BF9DF80E100079D2
S3150000859081420FD09DF80100002802BFF0B2FF28EB
S315000085A02E4600F030F8CDDB3546E8B2FF2803D181
S315000085B0892027E00024F8E7C4B101208DF80000E7
S315000085C0396848798DF8010039684A88ADF8048021
S315000085D08DF80690ADF80220398AADF80810F888B3
S315000085E0ADF80C00396808798DF80E00ADF810A0CA
S315000085F06846FCF73EFE040003D16946E8B2FFF781
S315000086003CFB2046C7E66D1CE8B206287047694663
S31500008610E8B2FFF72CBB30B585B004460025FFF75E
S31500008620F6FF21466846FFF730FE38B9FFF7EBFF45
S31500008630F5DB2046FFF74FFE05B030BD0020FBE717
S3150000864010B528244E4A012805D1F02421021046EF
S3150000865004F042FD0CE00228506808BF02240028FE
S31500008660F4D0FA2161438842F0D2840808BF01247D
S31500008670204610BD00BF0020E2E70AF0DEBE4048FB
S315000086800021017041603F49012001F07ABD0100DF
S315000086901CBF012802280AD1662B08D13A48017866
S315000086A0491C0170C9B2002918BFFFF7E3BF704724
S315000086B00AF05FBFFEB50020344908700022324B35
S315000086C01A70334E30784FF6FD74324D70B12888EB
S315000086D04FF6FC770097002300210BF0C9F9002123
S315000086E031702C800120FFF7ABFFF7BD2A480178D7
S315000086F0012908D001A804F0D5FB002804BF9DF885
S3150000870004000128EED100214FF6F87008F01DFF95
S315000087100028E7D1FCF76AFD2888A042E2D00121B3
S3150000872031700220DFE7A92818BFAA2811D11748FF
S315000087300278521C0270D2B2032A0ADB154802885C
S315000087404FF6FD739A4203D101800021104A117041
S3150000875091E7704780B591280AD100F0ADF968B964
S315000087600E49012001F00DFDBDE801400AF055BD9E
S31500008770902803D10120BDE8024061E701BD000059
S31500008780A4130120F0D70500EB5D0120EA5D01206E
S31500008790EC5D012048C30020B0C3002018D80500B6
S315000087A010B51D4C20460CF037FB052121721B48E5
S315000087B0E06041F610412182204610BDE0B502A8D6
S315000087C000210190009148F208030022102114486C
S315000087D00CF08EFC9DF80800401E8041C00F0EBDB7
S315000087E070473EB502A80E4C01900025009548F250
S315000087F008130022102120460CF07AFC9DF8080090
S3150000880048B9084908680BF0F2FE02AB00222021A5
S3150000881020460CF05FFD37BD9CBE0020E41401200D
S31500008820F0450120F430012080B5A0B080787D228B
S31500008830694604F089FA01001CBF694602F0BFFDD3
S3150000884021B000BD0A46014638B510460CF00CFFB3
S315000088500446FF2801D1182032BD0DF019FE054649
S3150000886020460CF07EFE284632BD80B502F0A8FCFC
S315000088700120BDE8024010B5040014BF08480020DE
S315000088800DF0F0FE50B1002C0346064914BF064A0F
S31500008890064A0220BDE8104001F073BC10BD00007E
S315000088A084B3050040B305006CB3050078B305003A
S315000088B038B50EF03FF80EF044F878B1FCF79FFC9F
S315000088C060B1094C207804F0B5FC0546207804F028
S315000088D0F2FC3DB1BDE83140FCF790BCBDE831404B
S315000088E00EF082B831BD00006F4F01207047FEE7E1
S315000088F080B5522200215248FDF769FF5222FF211E
S315000089005048BDE80840FDF762BF2DE9F641044630
S3150000891001F0F4FA0646204601F000FB9DF800102F
S3150000892022464FF6FF7516B3019B212A1B781EDAE5
S315000089304220454E022B09DA4343F01830F8123034
S31500008940AB4214D05B1C20F8123010E00FD100238C
S3150000895006EB420700FB03F637F806E0AE451CBF00
S315000089600EF1010E27F806E05B1C022BF2DBDFF8A6
S31500008970D4C0334E3CF8123036F812709F42804114
S31500008980C043C00FAF421CBF7F1C26F81270092CD3
S31500008990BCF8147018BF0B2C08D1B6F814C001EB44
S315000089A00C0EBE450FDA6144B1820DE01D2C0BD1D1
S315000089B0B6F83AE0BCF83AC001EB0E08E04502DA38
S315000089C07144718700E0B78236F81210994203D3DA
S315000089D010B92046FCF70BFC00201C49C6B28A5D84
S315000089E0A24204D0401CC6B2112EF7DB17E0112EAE
S315000089F015DA02F0E2FA0446154801788C4203DBE8
S31500008A00E021144804F0E8FC2220444312490819E6
S31500008A1030F81610A9421CBF491C20F81610BDE8F4
S31500008A20F381522200210648FDF7D1BE5222FF21D2
S31500008A300448FDF7CCBE034A22F810107047000028
S31500008A4054120120A8120120201301200CD6050083
S31500008A50BDC30020FCD50500FC120120DFF8D81AA2
S31500008A60C873704710B5DFF8D44A2068427B112AD4
S31500008A7004D0B021DFF8200C04F0AEFC20684121C0
S31500008A80417310BD80B5022002F09DFA02F0A4FAEF
S31500008A9000F040FADFF8FC0B137B042B03D1017CBA
S31500008AA0491D017404E04FF47A71183004F014FB88
S31500008AB0BDE8014002F091BADFF8800A0168487B00
S31500008AC033281CBF4328532801D1012070470020BA
S31500008AD070472DE9FF410DF09BFF08F087FB00284A
S31500008AE04FD0DFF8544A00202076DFF8B00B01792A
S31500008AF00C3001F065F8607D18B10EF01BF900200E
S31500008B0060750021217300F042F80BF044F80DF077
S31500008B10CFFF0025DFF8888BDFF8206ADFF8847B3B
S31500008B203978E8B288422CD202F056FA30684FF60D
S31500008B30FF724188914218BF012007D10022082107
S31500008B40001D01F093FA401E8041C00F94F82810D2
S31500008B5001F00101014210D0306808224188ADF8C9
S31500008B60081000F010F80A230A2201F06FF8022319
S31500008B700B22414600200EF063FD02F02EFA6D1C1A
S31500008B80CEE7BDE8FF81011D6846FDF7D9BD10B5EA
S31500008B90DFF8A8090068017B032918BF042906D15C
S31500008BA041884FF6FF72914208BF032008D001F0BA
S31500008BB0C4F9044601F0C5F9214603F0E2FC02209F
S31500008BC001F0C7F90EF0ECFD00F0CAFEBDE810405A
S31500008BD00BF00CB838B5DFF86049E07300214FF6AA
S31500008BE0FF7001F001F9DFF854592968487B032822
S31500008BF018BF00281ED0332818BF432814D101F00F
S31500008C00A1F82868017B032918BF042906D103218E
S31500008C104173E07BBDE8324002F03DBAE07B02F0F2
S31500008C203AFABDE83140B2E721204873BDE8314049
S31500008C3005F0CABE31BD10B500F06CF90020DFF8B2
S31500008C40544A50734FF6FE7008F0CEF94FF6FF7097
S31500008C5008F0D2F901F076F8E07BBDE8104002F0AA
S31500008C601ABA00007FB50446E07A1522DFF8CC5820
S31500008C70029094F90A100320019123892FA10093F1
S31500008C8023460EF00CFF2968487B70B9208901F055
S31500008C90C5F80AD0DFF8102A10780B2805D102F0A3
S31500008CA09DF910B902F09CF910B1702004B070BDA6
S31500008CB02868017D880708D508F092F94FF6FE72FC
S31500008CC0904203D10EF023FF00E00020214600F081
S31500008CD026FF06000DD12868017D88074CBF0220BB
S31500008CE0012000F0F4FE002101200FF053F90600E8
S31500008CF001D03046DAE7DFF8E41B087808B110F057
S31500008D009AFA00220821204601F0B0F930B1042178
S31500008D10204610F003FB08B1A520C7E7DFF8C00B1B
S31500008D2001780020DFF8342CE0812174626120464E
S31500008D3000F052F9064602F00CF9DAE742387057AD
S31500008D404242000038B504462346182200F0FCFFD4
S31500008D50DFF84009002180F82010220002D0FF2C05
S31500008D6002D10121017507E00122A50002756D1CE3
S31500008D702902203004F0B0F900F0F2FD002032BDE7
S31500008D80DFF81009007D70470020DFF8081981F828
S31500008D902000D7E738B588B004460D466869162224
S31500008DA00790297C0691E8890590297B0491E87A49
S31500008DB0039095F90A10032002912B89CDF80050F3
S31500008DC00BA1019323460EF06AFE01200DF0DAFF97
S31500008DD0287B00280CBF4FF6FE7008F001F92B46E1
S31500008DE02246014609B00120BDE8304096E0000069
S31500008DF04242387057424242574244002DE9F04100
S31500008E000E46DFF83857296880461446487B1F46C9
S31500008E1000284BD1200049D0042C47DCDFF8880815
S31500008E2001780B2942D102F0D9F800283ED102F090
S31500008E30D7F808B1042C39DB387B032816D14FF656
S31500008E40FE718E4214D1012C08BF002610D0022CD0
S31500008E502CD108F0C5F84FF6FC71884202DA08F00A
S31500008E60BFF801E00EF053FE064601E0012C1DD0CE
S31500008E70B8F1000F0CD0387B032820460CBF012127
S31500008E800021012C18BF00200FF084F8010026D124
S31500008E903946304600F043FE010020D102F098F832
S31500008EA002F07DF820B102F09BF808B1702016E0C0
S31500008EB02868407B332818BF532803D00020DFF8EA
S31500008EC078168873204600F002FEDFF8101A08783C
S31500008ED020B102F085F808B910F0ADF90020BDE820
S31500008EE0F08138B50446DFF8AC5708222146281D24
S31500008EF0FDF726FC207B0328A8BF002028702878D1
S31500008F009421E973002800F005F80CBF01203120F8
S31500008F10507331BDDFF824160A68704710B51C4639
S31500008F20FFF76CFF01002BD1207B0328204602D1DE
S31500008F30BDE8104050E0FFF7D4FFDFF8FC05002144
S31500008F408181DFF8F84520684FF00103817B4809ED
S31500008F5005D1DFF8200C027803FA01F108E001F0F0
S31500008F601F0140F0180003FA01F1052241EAC06131
S31500008F70052006F090FD010002D022680021517301
S31500008F8010BD38B50446DFF8B455207829688873D3
S31500008F9001F0DFFF2968DFF8240C0A7B2189825C57
S31500008FA0608910F0E4FC040004D09420FFF712FE60
S31500008FB0204632BDDFF880459420E073022002F09F
S31500008FC001F800F004F803202074002032BDC82107
S31500008FD004F1180004F080B810B5044600220821F8
S31500008FE001F044F808B1012010BD07F0F9FF002296
S31500008FF04FF6FF7100F0C0FD217C204600F0E0FD39
S315000090006269E189207C0EF0FBFBDFF83005016820
S315000090100A7B012A08BF0FF055FDFFF7B8FD0020B7
S3150000902010BD7CB5DFF8145529680446487B002836
S3150000903002BFDFF8741608780B2801D0702076BDC1
S315000090400DF0A9FEDFF8F0642CB10222214606F1EC
S315000090502800FDF775FB684600F09EFE08B19320D8
S3150000906076BD9DF80030142200F06EFE00F0F2FD91
S31500009070010061D19DF8000000F029FD2868007B01
S31500009080012818BF022807D0032818BF042838D1A2
S31500009090002000F0C7FEA0B300F0F3FD2868007BB7
S315000090A0032814BF042810F030FDFFF770FD0120DF
S315000090B010F04CFD01003FD12868007B032818BF43
S315000090C004280ED196F828108A0708D50522DFF85D
S315000090D08C18012000F046F801002CD076BD03283C
S315000090E001D0042827D1DFF8B84502230B222146F8
S315000090F001200EF0A5FA207841071CD50DF0D0FD11
S3150000910019E02968132000224873727328684FF00B
S315000091100102817B480908BF02FA01F107D001F07C
S315000091201F0140F0180002FA01F141EAC061052270
S31500009130072006F0B0FC002076BDFF2212E00000FA
S3150000914038B50446104603280D4618BF042801D03A
S31500009150022032BD00F0BBFC294620465FF0FF022C
S31500009160BDE838402DE9FC418046DFF8D0030068B1
S315000091700D461646017B012940D0477B022F07D0BA
S31500009180032F3BD15FEA080102D1007D810735D468
S31500009190332000F0DEFE0DF03BFC15F0784F29463B
S315000091A012BF0522DFF8CC090278052006F073FC11
S315000091B00446A8B9DFF8DC74387301200DF0E2FD2F
S315000091C007F016FF78805FEA080014BF022001202E
S315000091D03870381D00F0F7FD00207873BE7302E08A
S315000091E0384600F0B6FE5FEA08003146284602D04F
S315000091F010F0C6FC03E010F0C2FC00E070240194FD
S31500009200009543465FF02C0203A103200EF047FCB5
S315000092102046BDE8F68100004242444200000000BC
S3150000922038B504460CF028F90546204610F0CFFC68
S315000092302C18204610F0D6FD4FF6FF51014020466F
S31500009240BDE8344010F0D5BDFEB5054607F0C8FEB2
S315000092500646BA4C28782168887301F07AFE688938
S31500009260002100F0C1FD00F013FF60B1300003D013
S315000092704FF6F8718E4206DB0EF049FC2168064671
S315000092804A889042F8D0304607F0AEFE288907F0AB
S31500009290B3FE06208DF808002068DFF82019027B4F
S315000092A08B5C002101918DF80930009140880223E2
S315000092B002AA012110F0EEFE0646FF2804D118206E
S315000092C0FFF788FC1820FEBD20689B4D418830467C
S315000092D010F0BEFC287802281CBF3046FFF7A0FF1E
S315000092E000F063F8074630460CF03BF9CFB1942006
S315000092F0E873022001F066FE2068017B042908D18C
S31500009300C82105F1180003F0E7FE032028740020A9
S31500009310FEBD4FF4167105F1180003F0DDFE0020C6
S31500009320F4E79420FFF756FC0120FEBD78B587B020
S315000093300C4616461D4630B9204611F071F803A9B1
S315000093400FF087FE03A80C99019007238DF809609A
S3150000935001208DF80830360A8DF80B1000908DF834
S315000093600A60042302AA0121204610F093FE064655
S31500009370FF2818D0214610F06BFC15B93046FFF7D0
S315000093804FFF0D9808B930460DE020460FF09AFEC3
S3150000939018B1304611F072F801E000F006F83046D8
S315000093A00CF0DFF8FF2008B070BD00220021304627
S315000093B011F0A5BB2DE9F34F83B0824614461D4636
S315000093C000274FF6FF7954B1204610F09EFE6678CE
S315000093D04FF0010B8046760806F0010605E00846C8
S315000093E010F09FFCBB460026804600F0E4FB087B9D
S315000093F0032818BF042800F09C809DF810006D1CFF
S31500009400E9B20CF050FA0546400800F001008DF86C
S315000094100900280600F0CFFB8DF808A058BF45F0DC
S3150000942080054A7B022A04D1434A107D50EA0A018C
S3150000943001D1022729E0404607F081FDADF8000082
S315000094409DF81000032110F0BCFB814608B94FF0CF
S31500009450010930000CBF4FF0050A4FF0010ABBF1BD
S31500009460000F03D0201D10F0BDFC01E0BDF8000088
S315000094700146CDF8009053462A4640460FF003FDBC
S3150000948000F0CCFC814608BF0127DCB19DF808003E
S3150000949018B9484600F0C2FC02D1201D10F0A2FC0B
S315000094A0012101910146009733464A464046FFF79F
S315000094B03DFF9DF8090050B94FF6FF71404611F087
S315000094C0FCFD04E03A464946404610F029FA87BBBF
S315000094D09DF8090028B14146484611F012FE11F0E8
S315000094E05FFE30001EBF48464FF6FF7188420BD024
S315000094F010F096FFDFF8A8190A684BF6FF7132F8EC
S3150000950010300B4022F810309CB107F069FD0EB107
S31500009510002405E09DF80810002914BF0324012447
S31500009520014643464A46204605B0BDE8F04F11F0D5
S31500009530DDBF05B0BDE8F08FE047012040480120BF
S315000095402DE9FC4705460C4601A900200860904617
